{
  "contractName": "SIP",
  "abi": [
    {
      "anonymous": false,
      "inputs": [
        {
          "indexed": false,
          "internalType": "uint256",
          "name": "sppID",
          "type": "uint256"
        }
      ],
      "name": "ChargeSpp",
      "type": "event"
    },
    {
      "anonymous": false,
      "inputs": [
        {
          "indexed": false,
          "internalType": "uint256",
          "name": "sppID",
          "type": "uint256"
        }
      ],
      "name": "CloseSpp",
      "type": "event"
    },
    {
      "anonymous": false,
      "inputs": [
        {
          "indexed": true,
          "internalType": "address",
          "name": "token",
          "type": "address"
        },
        {
          "indexed": true,
          "internalType": "address",
          "name": "user",
          "type": "address"
        },
        {
          "indexed": false,
          "internalType": "uint256",
          "name": "amount",
          "type": "uint256"
        },
        {
          "indexed": false,
          "internalType": "uint256",
          "name": "balance",
          "type": "uint256"
        }
      ],
      "name": "Deposit",
      "type": "event"
    },
    {
      "anonymous": false,
      "inputs": [
        {
          "indexed": true,
          "internalType": "uint256",
          "name": "sppID",
          "type": "uint256"
        },
        {
          "indexed": true,
          "internalType": "address",
          "name": "customerAddress",
          "type": "address"
        },
        {
          "indexed": false,
          "internalType": "uint256",
          "name": "value",
          "type": "uint256"
        },
        {
          "indexed": false,
          "internalType": "uint256",
          "name": "period",
          "type": "uint256"
        },
        {
          "indexed": true,
          "internalType": "address",
          "name": "tokenGet",
          "type": "address"
        },
        {
          "indexed": false,
          "internalType": "address",
          "name": "tokenGive",
          "type": "address"
        }
      ],
      "name": "SubscribeToSpp",
      "type": "event"
    },
    {
      "anonymous": false,
      "inputs": [
        {
          "indexed": true,
          "internalType": "address",
          "name": "token",
          "type": "address"
        },
        {
          "indexed": true,
          "internalType": "address",
          "name": "user",
          "type": "address"
        },
        {
          "indexed": false,
          "internalType": "uint256",
          "name": "amount",
          "type": "uint256"
        },
        {
          "indexed": false,
          "internalType": "uint256",
          "name": "balance",
          "type": "uint256"
        }
      ],
      "name": "Withdraw",
      "type": "event"
    },
    {
      "inputs": [],
      "name": "factory",
      "outputs": [
        {
          "internalType": "address",
          "name": "",
          "type": "address"
        }
      ],
      "stateMutability": "view",
      "type": "function"
    },
    {
      "inputs": [],
      "name": "fee",
      "outputs": [
        {
          "internalType": "uint256",
          "name": "",
          "type": "uint256"
        }
      ],
      "stateMutability": "view",
      "type": "function"
    },
    {
      "inputs": [],
      "name": "feeAccount",
      "outputs": [
        {
          "internalType": "address",
          "name": "",
          "type": "address"
        }
      ],
      "stateMutability": "view",
      "type": "function"
    },
    {
      "inputs": [
        {
          "internalType": "uint256",
          "name": "",
          "type": "uint256"
        }
      ],
      "name": "inactiveSIP",
      "outputs": [
        {
          "internalType": "bool",
          "name": "",
          "type": "bool"
        }
      ],
      "stateMutability": "view",
      "type": "function"
    },
    {
      "inputs": [],
      "name": "minPeriod",
      "outputs": [
        {
          "internalType": "uint256",
          "name": "",
          "type": "uint256"
        }
      ],
      "stateMutability": "view",
      "type": "function"
    },
    {
      "inputs": [],
      "name": "owner",
      "outputs": [
        {
          "internalType": "address",
          "name": "",
          "type": "address"
        }
      ],
      "stateMutability": "view",
      "type": "function"
    },
    {
      "inputs": [
        {
          "internalType": "address",
          "name": "",
          "type": "address"
        },
        {
          "internalType": "address",
          "name": "",
          "type": "address"
        }
      ],
      "name": "pairDetails",
      "outputs": [
        {
          "internalType": "address",
          "name": "",
          "type": "address"
        }
      ],
      "stateMutability": "view",
      "type": "function"
    },
    {
      "inputs": [],
      "name": "scLock",
      "outputs": [
        {
          "internalType": "bool",
          "name": "",
          "type": "bool"
        }
      ],
      "stateMutability": "view",
      "type": "function"
    },
    {
      "inputs": [
        {
          "internalType": "uint256",
          "name": "",
          "type": "uint256"
        }
      ],
      "name": "sppAmounts",
      "outputs": [
        {
          "internalType": "uint256",
          "name": "",
          "type": "uint256"
        }
      ],
      "stateMutability": "view",
      "type": "function"
    },
    {
      "inputs": [],
      "name": "sppID",
      "outputs": [
        {
          "internalType": "uint256",
          "name": "",
          "type": "uint256"
        }
      ],
      "stateMutability": "view",
      "type": "function"
    },
    {
      "inputs": [
        {
          "internalType": "uint256",
          "name": "",
          "type": "uint256"
        }
      ],
      "name": "sppSubscriptionStats",
      "outputs": [
        {
          "internalType": "bool",
          "name": "exists",
          "type": "bool"
        },
        {
          "internalType": "address",
          "name": "customerAddress",
          "type": "address"
        },
        {
          "internalType": "uint256",
          "name": "value",
          "type": "uint256"
        },
        {
          "internalType": "uint256",
          "name": "period",
          "type": "uint256"
        },
        {
          "internalType": "uint256",
          "name": "lastPaidAt",
          "type": "uint256"
        }
      ],
      "stateMutability": "view",
      "type": "function"
    },
    {
      "inputs": [
        {
          "internalType": "address",
          "name": "",
          "type": "address"
        },
        {
          "internalType": "address",
          "name": "",
          "type": "address"
        }
      ],
      "name": "tokens",
      "outputs": [
        {
          "internalType": "uint256",
          "name": "",
          "type": "uint256"
        }
      ],
      "stateMutability": "view",
      "type": "function"
    },
    {
      "inputs": [],
      "name": "uniswapContractAddress",
      "outputs": [
        {
          "internalType": "address",
          "name": "",
          "type": "address"
        }
      ],
      "stateMutability": "view",
      "type": "function"
    },
    {
      "inputs": [],
      "name": "usdt",
      "outputs": [
        {
          "internalType": "address",
          "name": "",
          "type": "address"
        }
      ],
      "stateMutability": "view",
      "type": "function"
    },
    {
      "inputs": [],
      "name": "usdtDecimal",
      "outputs": [
        {
          "internalType": "uint256",
          "name": "",
          "type": "uint256"
        }
      ],
      "stateMutability": "view",
      "type": "function"
    },
    {
      "inputs": [],
      "name": "setLock",
      "outputs": [],
      "stateMutability": "nonpayable",
      "type": "function"
    },
    {
      "inputs": [
        {
          "internalType": "address",
          "name": "owner_",
          "type": "address"
        }
      ],
      "name": "changeOwner",
      "outputs": [],
      "stateMutability": "nonpayable",
      "type": "function"
    },
    {
      "inputs": [],
      "name": "becomeOwner",
      "outputs": [],
      "stateMutability": "nonpayable",
      "type": "function"
    },
    {
      "inputs": [
        {
          "internalType": "address",
          "name": "token",
          "type": "address"
        },
        {
          "internalType": "uint256",
          "name": "amount",
          "type": "uint256"
        }
      ],
      "name": "depositToken",
      "outputs": [],
      "stateMutability": "nonpayable",
      "type": "function"
    },
    {
      "inputs": [
        {
          "internalType": "address",
          "name": "token",
          "type": "address"
        },
        {
          "internalType": "uint256",
          "name": "amount",
          "type": "uint256"
        }
      ],
      "name": "withdrawToken",
      "outputs": [],
      "stateMutability": "nonpayable",
      "type": "function"
    },
    {
      "inputs": [
        {
          "internalType": "address",
          "name": "token",
          "type": "address"
        },
        {
          "internalType": "address",
          "name": "user",
          "type": "address"
        }
      ],
      "name": "tokenBalanceOf",
      "outputs": [
        {
          "internalType": "uint256",
          "name": "balance",
          "type": "uint256"
        }
      ],
      "stateMutability": "view",
      "type": "function"
    },
    {
      "inputs": [
        {
          "internalType": "uint256",
          "name": "value",
          "type": "uint256"
        },
        {
          "internalType": "uint256",
          "name": "period",
          "type": "uint256"
        },
        {
          "internalType": "address",
          "name": "tokenGet",
          "type": "address"
        },
        {
          "internalType": "address",
          "name": "tokenGive",
          "type": "address"
        }
      ],
      "name": "subscribeToSpp",
      "outputs": [
        {
          "internalType": "uint256",
          "name": "sID",
          "type": "uint256"
        }
      ],
      "stateMutability": "nonpayable",
      "type": "function"
    },
    {
      "inputs": [
        {
          "internalType": "address",
          "name": "pair",
          "type": "address"
        },
        {
          "internalType": "uint256",
          "name": "start",
          "type": "uint256"
        },
        {
          "internalType": "uint256",
          "name": "end",
          "type": "uint256"
        },
        {
          "internalType": "bool",
          "name": "_upwards",
          "type": "bool"
        }
      ],
      "name": "chargeSppIndex",
      "outputs": [],
      "stateMutability": "nonpayable",
      "type": "function"
    },
    {
      "inputs": [
        {
          "internalType": "uint256",
          "name": "sppID",
          "type": "uint256"
        }
      ],
      "name": "chargeSppByID",
      "outputs": [],
      "stateMutability": "nonpayable",
      "type": "function"
    },
    {
      "inputs": [
        {
          "internalType": "address",
          "name": "pair",
          "type": "address"
        },
        {
          "internalType": "uint256",
          "name": "toCharge",
          "type": "uint256"
        },
        {
          "internalType": "bool",
          "name": "_upwards",
          "type": "bool"
        }
      ],
      "name": "chargeSppAll",
      "outputs": [],
      "stateMutability": "nonpayable",
      "type": "function"
    },
    {
      "inputs": [
        {
          "internalType": "uint256",
          "name": "sppID",
          "type": "uint256"
        }
      ],
      "name": "closeSpp",
      "outputs": [
        {
          "internalType": "bool",
          "name": "success",
          "type": "bool"
        }
      ],
      "stateMutability": "nonpayable",
      "type": "function"
    },
    {
      "inputs": [
        {
          "internalType": "address",
          "name": "usdt1",
          "type": "address"
        },
        {
          "internalType": "address",
          "name": "feeAccount1",
          "type": "address"
        },
        {
          "internalType": "address",
          "name": "uniswapContractAddress1",
          "type": "address"
        },
        {
          "internalType": "address",
          "name": "factory1",
          "type": "address"
        }
      ],
      "name": "setAddresses",
      "outputs": [],
      "stateMutability": "nonpayable",
      "type": "function"
    },
    {
      "inputs": [
        {
          "internalType": "uint256",
          "name": "decimal",
          "type": "uint256"
        }
      ],
      "name": "setUsdtDecimal",
      "outputs": [],
      "stateMutability": "nonpayable",
      "type": "function"
    },
    {
      "inputs": [
        {
          "internalType": "uint256",
          "name": "p",
          "type": "uint256"
        }
      ],
      "name": "setMinPeriod",
      "outputs": [],
      "stateMutability": "nonpayable",
      "type": "function"
    },
    {
      "inputs": [
        {
          "internalType": "uint256",
          "name": "sppID",
          "type": "uint256"
        }
      ],
      "name": "isActiveSpp",
      "outputs": [
        {
          "internalType": "bool",
          "name": "res",
          "type": "bool"
        }
      ],
      "stateMutability": "view",
      "type": "function"
    },
    {
      "inputs": [],
      "name": "getLatestSppId",
      "outputs": [
        {
          "internalType": "uint256",
          "name": "sppId",
          "type": "uint256"
        }
      ],
      "stateMutability": "view",
      "type": "function"
    },
    {
      "inputs": [
        {
          "internalType": "address",
          "name": "_from",
          "type": "address"
        }
      ],
      "name": "getlistOfSppSubscriptions",
      "outputs": [
        {
          "internalType": "uint256[]",
          "name": "arr",
          "type": "uint256[]"
        }
      ],
      "stateMutability": "view",
      "type": "function"
    },
    {
      "inputs": [
        {
          "internalType": "uint256",
          "name": "sppID",
          "type": "uint256"
        }
      ],
      "name": "getcurrentTokenAmounts",
      "outputs": [
        {
          "internalType": "uint256[2]",
          "name": "arr",
          "type": "uint256[2]"
        }
      ],
      "stateMutability": "view",
      "type": "function"
    },
    {
      "inputs": [
        {
          "internalType": "uint256",
          "name": "sppID",
          "type": "uint256"
        }
      ],
      "name": "getTokenStats",
      "outputs": [
        {
          "internalType": "address[2]",
          "name": "arr",
          "type": "address[2]"
        }
      ],
      "stateMutability": "view",
      "type": "function"
    },
    {
      "inputs": [
        {
          "internalType": "uint256",
          "name": "sppID",
          "type": "uint256"
        }
      ],
      "name": "fetchPairAndDirection",
      "outputs": [
        {
          "internalType": "bool",
          "name": "direction",
          "type": "bool"
        },
        {
          "internalType": "address",
          "name": "pair",
          "type": "address"
        }
      ],
      "stateMutability": "view",
      "type": "function"
    },
    {
      "inputs": [
        {
          "internalType": "address",
          "name": "_pair",
          "type": "address"
        },
        {
          "internalType": "bool",
          "name": "_upwards",
          "type": "bool"
        }
      ],
      "name": "fetchPathDetailsAdd",
      "outputs": [
        {
          "internalType": "address[]",
          "name": "arr",
          "type": "address[]"
        }
      ],
      "stateMutability": "view",
      "type": "function"
    },
    {
      "inputs": [
        {
          "internalType": "address",
          "name": "_pair",
          "type": "address"
        },
        {
          "internalType": "bool",
          "name": "_upwards",
          "type": "bool"
        }
      ],
      "name": "fetchPathDetailsSPP",
      "outputs": [
        {
          "internalType": "uint256[]",
          "name": "arr",
          "type": "uint256[]"
        }
      ],
      "stateMutability": "view",
      "type": "function"
    },
    {
      "inputs": [
        {
          "internalType": "uint256",
          "name": "sppID",
          "type": "uint256"
        }
      ],
      "name": "getTimeRemainingToCharge",
      "outputs": [
        {
          "internalType": "uint256",
          "name": "time",
          "type": "uint256"
        }
      ],
      "stateMutability": "view",
      "type": "function"
    },
    {
      "inputs": [
        {
          "internalType": "uint256",
          "name": "_fee",
          "type": "uint256"
        }
      ],
      "name": "changeFee",
      "outputs": [],
      "stateMutability": "nonpayable",
      "type": "function"
    },
    {
      "inputs": [
        {
          "internalType": "uint256",
          "name": "_time",
          "type": "uint256"
        }
      ],
      "name": "getNearestHour",
      "outputs": [
        {
          "internalType": "uint256",
          "name": "",
          "type": "uint256"
        }
      ],
      "stateMutability": "pure",
      "type": "function"
    }
  ],
  "bytecode": "0x60806040526008600f55610e106011556000601260006101000a81548160ff021916908315150217905550601960135534801561003b57600080fd5b5061630e806200004c6000396000f3fe608060405234801561001057600080fd5b50600436106102485760003560e01c8063974dc1701161013b578063dcb5d18f116100b8578063f82107691161007c578063f821076914610cc2578063f8fdab4714610cf0578063f9dca98914610d7e578063f9fa764714610d88578063ffd49c8414610e2157610248565b8063dcb5d18f14610b4e578063ddca3f4314610bda578063de719a7814610bf8578063e57c243414610c52578063f3b674c914610c9457610248565b8063bbd63bc2116100ff578063bbd63bc214610a20578063c45a015514610a4e578063c582951414610a82578063c5f5d82214610aec578063cd262c4514610b0c57610248565b8063974dc170146108ab5780639e281a981461090f578063a6f9dae11461095d578063aaf90f0d146109a1578063b47abded146109bf57610248565b8063362efc3d116101c957806365e17c9d1161018d57806365e17c9d146107955780636a1db1bf146107c95780636f8b81ab146107f75780637aba6f371461086d5780638da5cb5b1461087757610248565b8063362efc3d146105725780633f3d6bb9146105905780634a945f8d146105d4578063508493bc146106785780635c33f5ee146106f057610248565b80632e5d1ee1116102105780632e5d1ee1146104265780632f48ab7d1461046857806330a9e79a1461049c578063338b5dea146104e057806335c3ab331461052e57610248565b8063018d8f4d1461024d57806301ba03fd1461026b57806306213d97146102d557806308ed2c711461037a5780631bea8006146103ae575b600080fd5b610255610e3f565b6040518082815260200191505060405180910390f35b6102976004803603602081101561028157600080fd5b8101908080359060200190929190505050610e49565b6040518082600260200280838360005b838110156102c25780820151818401526020810190506102a7565b5050505090500191505060405180910390f35b610323600480360360408110156102eb57600080fd5b81019080803573ffffffffffffffffffffffffffffffffffffffff169060200190929190803515159060200190929190505050610eb0565b6040518080602001828103825283818151815260200191508051906020019060200280838360005b8381101561036657808201518184015260208101905061034b565b505050509050019250505060405180910390f35b610382610fea565b604051808273ffffffffffffffffffffffffffffffffffffffff16815260200191505060405180910390f35b610410600480360360408110156103c457600080fd5b81019080803573ffffffffffffffffffffffffffffffffffffffff169060200190929190803573ffffffffffffffffffffffffffffffffffffffff169060200190929190505050611010565b6040518082815260200191505060405180910390f35b6104526004803603602081101561043c57600080fd5b8101908080359060200190929190505050611097565b6040518082815260200191505060405180910390f35b610470611141565b604051808273ffffffffffffffffffffffffffffffffffffffff16815260200191505060405180910390f35b6104c8600480360360208110156104b257600080fd5b8101908080359060200190929190505050611167565b60405180821515815260200191505060405180910390f35b61052c600480360360408110156104f657600080fd5b81019080803573ffffffffffffffffffffffffffffffffffffffff169060200190929190803590602001909291905050506112db565b005b61055a6004803603602081101561054457600080fd5b81019080803590602001909291905050506116ad565b60405180821515815260200191505060405180910390f35b61057a6116da565b6040518082815260200191505060405180910390f35b6105bc600480360360208110156105a657600080fd5b81019080803590602001909291905050506116e0565b60405180821515815260200191505060405180910390f35b610676600480360360808110156105ea57600080fd5b81019080803573ffffffffffffffffffffffffffffffffffffffff169060200190929190803573ffffffffffffffffffffffffffffffffffffffff169060200190929190803573ffffffffffffffffffffffffffffffffffffffff169060200190929190803573ffffffffffffffffffffffffffffffffffffffff169060200190929190505050611700565b005b6106da6004803603604081101561068e57600080fd5b81019080803573ffffffffffffffffffffffffffffffffffffffff169060200190929190803573ffffffffffffffffffffffffffffffffffffffff169060200190929190505050611864565b6040518082815260200191505060405180910390f35b61073e6004803603604081101561070657600080fd5b81019080803573ffffffffffffffffffffffffffffffffffffffff169060200190929190803515159060200190929190505050611889565b6040518080602001828103825283818151815260200191508051906020019060200280838360005b83811015610781578082015181840152602081019050610766565b505050509050019250505060405180910390f35b61079d611a2f565b604051808273ffffffffffffffffffffffffffffffffffffffff16815260200191505060405180910390f35b6107f5600480360360208110156107df57600080fd5b8101908080359060200190929190505050611a55565b005b6108236004803603602081101561080d57600080fd5b8101908080359060200190929190505050611b30565b6040518086151581526020018573ffffffffffffffffffffffffffffffffffffffff1681526020018481526020018381526020018281526020019550505050505060405180910390f35b610875611b93565b005b61087f611c19565b604051808273ffffffffffffffffffffffffffffffffffffffff16815260200191505060405180910390f35b61090d600480360360808110156108c157600080fd5b81019080803573ffffffffffffffffffffffffffffffffffffffff1690602001909291908035906020019092919080359060200190929190803515159060200190929190505050611c3f565b005b61095b6004803603604081101561092557600080fd5b81019080803573ffffffffffffffffffffffffffffffffffffffff16906020019092919080359060200190929190505050612854565b005b61099f6004803603602081101561097357600080fd5b81019080803573ffffffffffffffffffffffffffffffffffffffff169060200190929190505050612cfa565b005b6109a9612d98565b6040518082815260200191505060405180910390f35b6109eb600480360360208110156109d557600080fd5b8101908080359060200190929190505050612d9e565b6040518083151581526020018273ffffffffffffffffffffffffffffffffffffffff1681526020019250505060405180910390f35b610a4c60048036036020811015610a3657600080fd5b8101908080359060200190929190505050612f3c565b005b610a56612fa0565b604051808273ffffffffffffffffffffffffffffffffffffffff16815260200191505060405180910390f35b610aae60048036036020811015610a9857600080fd5b8101908080359060200190929190505050612fc6565b6040518082600260200280838360005b83811015610ad9578082015181840152602081019050610abe565b5050505090500191505060405180910390f35b610af46130c9565b60405180821515815260200191505060405180910390f35b610b3860048036036020811015610b2257600080fd5b81019080803590602001909291905050506130dc565b6040518082815260200191505060405180910390f35b610bc460048036036080811015610b6457600080fd5b810190808035906020019092919080359060200190929190803573ffffffffffffffffffffffffffffffffffffffff169060200190929190803573ffffffffffffffffffffffffffffffffffffffff1690602001909291905050506130f4565b6040518082815260200191505060405180910390f35b610be2613e03565b6040518082815260200191505060405180910390f35b610c5060048036036060811015610c0e57600080fd5b81019080803573ffffffffffffffffffffffffffffffffffffffff16906020019092919080359060200190929190803515159060200190929190505050613e09565b005b610c7e60048036036020811015610c6857600080fd5b8101908080359060200190929190505050614a3f565b6040518082815260200191505060405180910390f35b610cc060048036036020811015610caa57600080fd5b8101908080359060200190929190505050614aae565b005b610cee60048036036020811015610cd857600080fd5b8101908080359060200190929190505050615520565b005b610d5260048036036040811015610d0657600080fd5b81019080803573ffffffffffffffffffffffffffffffffffffffff169060200190929190803573ffffffffffffffffffffffffffffffffffffffff169060200190929190505050615584565b604051808273ffffffffffffffffffffffffffffffffffffffff16815260200191505060405180910390f35b610d866155c6565b005b610dca60048036036020811015610d9e57600080fd5b81019080803573ffffffffffffffffffffffffffffffffffffffff169060200190929190505050615660565b6040518080602001828103825283818151815260200191508051906020019060200280838360005b83811015610e0d578082015181840152602081019050610df2565b505050509050019250505060405180910390f35b610e296156fa565b6040518082815260200191505060405180910390f35b6000600d54905090565b610e5161623c565b600360008381526020019081526020016000206001015481600060028110610e7557fe5b602002018181525050600360008381526020019081526020016000206003015481600160028110610ea257fe5b602002018181525050919050565b60608115610f5057600160008473ffffffffffffffffffffffffffffffffffffffff1673ffffffffffffffffffffffffffffffffffffffff168152602001908152602001600020600101805480602002602001604051908101604052809291908181526020018280548015610f4457602002820191906000526020600020905b815481526020019060010190808311610f30575b50505050509050610fe4565b600260008473ffffffffffffffffffffffffffffffffffffffff1673ffffffffffffffffffffffffffffffffffffffff168152602001908152602001600020600101805480602002602001604051908101604052809291908181526020018280548015610fdc57602002820191906000526020600020905b815481526020019060010190808311610fc8575b505050505090505b92915050565b600960009054906101000a900473ffffffffffffffffffffffffffffffffffffffff1681565b6000600660008473ffffffffffffffffffffffffffffffffffffffff1673ffffffffffffffffffffffffffffffffffffffff16815260200190815260200160002060008373ffffffffffffffffffffffffffffffffffffffff1673ffffffffffffffffffffffffffffffffffffffff16815260200190815260200160002054905092915050565b6000426110d96005600085815260200190815260200160002060020154600560008681526020019081526020016000206003015461570090919063ffffffff16565b10156110e8576000905061113c565b6111394261112b6005600086815260200190815260200160002060020154600560008781526020019081526020016000206003015461570090919063ffffffff16565b61578890919063ffffffff16565b90505b919050565b600e60009054906101000a900473ffffffffffffffffffffffffffffffffffffffff1681565b60006005600083815260200190815260200160002060000160019054906101000a900473ffffffffffffffffffffffffffffffffffffffff1673ffffffffffffffffffffffffffffffffffffffff163373ffffffffffffffffffffffffffffffffffffffff1614611240576040517f08c379a00000000000000000000000000000000000000000000000000000000081526004018080602001828103825260028152602001807f4e4100000000000000000000000000000000000000000000000000000000000081525060200191505060405180910390fd5b60006005600084815260200190815260200160002060000160006101000a81548160ff02191690831515021790555060016007600084815260200190815260200160002060006101000a81548160ff0219169083151502179055507fab149a4a47ec4cf93213cf59505a91b36ad878b91f11aef9c3b307e9fe267ff5826040518082815260200191505060405180910390a160019050919050565b600073ffffffffffffffffffffffffffffffffffffffff168273ffffffffffffffffffffffffffffffffffffffff16141561137e576040517f08c379a00000000000000000000000000000000000000000000000000000000081526004018080602001828103825260028152602001807f495400000000000000000000000000000000000000000000000000000000000081525060200191505060405180910390fd5b8173ffffffffffffffffffffffffffffffffffffffff166323b872dd3330846040518463ffffffff1660e01b8152600401808473ffffffffffffffffffffffffffffffffffffffff1681526020018373ffffffffffffffffffffffffffffffffffffffff1681526020018281526020019350505050602060405180830381600087803b15801561140d57600080fd5b505af1158015611421573d6000803e3d6000fd5b505050506040513d602081101561143757600080fd5b81019080805190602001909291905050506114ba576040517f08c379a00000000000000000000000000000000000000000000000000000000081526004018080602001828103825260028152602001807f544600000000000000000000000000000000000000000000000000000000000081525060200191505060405180910390fd5b611540600660008473ffffffffffffffffffffffffffffffffffffffff1673ffffffffffffffffffffffffffffffffffffffff16815260200190815260200160002060003373ffffffffffffffffffffffffffffffffffffffff1673ffffffffffffffffffffffffffffffffffffffff1681526020019081526020016000205482615700565b600660008473ffffffffffffffffffffffffffffffffffffffff1673ffffffffffffffffffffffffffffffffffffffff16815260200190815260200160002060003373ffffffffffffffffffffffffffffffffffffffff1673ffffffffffffffffffffffffffffffffffffffff168152602001908152602001600020819055503373ffffffffffffffffffffffffffffffffffffffff168273ffffffffffffffffffffffffffffffffffffffff167fdcbc1c05240f31ff3ad067ef1ee35ce4997762752e3a095284754544f4c709d783600660008773ffffffffffffffffffffffffffffffffffffffff1673ffffffffffffffffffffffffffffffffffffffff16815260200190815260200160002060003373ffffffffffffffffffffffffffffffffffffffff1673ffffffffffffffffffffffffffffffffffffffff16815260200190815260200160002054604051808381526020018281526020019250505060405180910390a35050565b60006005600083815260200190815260200160002060000160009054906101000a900460ff169050919050565b600f5481565b60076020528060005260406000206000915054906101000a900460ff1681565b600b60009054906101000a900473ffffffffffffffffffffffffffffffffffffffff1673ffffffffffffffffffffffffffffffffffffffff163373ffffffffffffffffffffffffffffffffffffffff161461175a57600080fd5b83600e60006101000a81548173ffffffffffffffffffffffffffffffffffffffff021916908373ffffffffffffffffffffffffffffffffffffffff16021790555082601060006101000a81548173ffffffffffffffffffffffffffffffffffffffff021916908373ffffffffffffffffffffffffffffffffffffffff16021790555081600960006101000a81548173ffffffffffffffffffffffffffffffffffffffff021916908373ffffffffffffffffffffffffffffffffffffffff16021790555080600a60006101000a81548173ffffffffffffffffffffffffffffffffffffffff021916908373ffffffffffffffffffffffffffffffffffffffff16021790555050505050565b6006602052816000526040600020602052806000526040600020600091509150505481565b6060811561195f57600160008473ffffffffffffffffffffffffffffffffffffffff1673ffffffffffffffffffffffffffffffffffffffff16815260200190815260200160002060000180548060200260200160405190810160405280929190818152602001828054801561195357602002820191906000526020600020905b8160009054906101000a900473ffffffffffffffffffffffffffffffffffffffff1673ffffffffffffffffffffffffffffffffffffffff1681526020019060010190808311611909575b50505050509050611a29565b600260008473ffffffffffffffffffffffffffffffffffffffff1673ffffffffffffffffffffffffffffffffffffffff168152602001908152602001600020600001805480602002602001604051908101604052809291908181526020018280548015611a2157602002820191906000526020600020905b8160009054906101000a900473ffffffffffffffffffffffffffffffffffffffff1673ffffffffffffffffffffffffffffffffffffffff16815260200190600101908083116119d7575b505050505090505b92915050565b601060009054906101000a900473ffffffffffffffffffffffffffffffffffffffff1681565b600b60009054906101000a900473ffffffffffffffffffffffffffffffffffffffff1673ffffffffffffffffffffffffffffffffffffffff163373ffffffffffffffffffffffffffffffffffffffff1614611aaf57600080fd5b6019811115611b26576040517f08c379a000000000000000000000000000000000000000000000000000000000815260040180806020018281038252601d8152602001807f43616e6e6f7420696e63726561736520666565206265796f6e6420323500000081525060200191505060405180910390fd5b8060138190555050565b60056020528060005260406000206000915090508060000160009054906101000a900460ff16908060000160019054906101000a900473ffffffffffffffffffffffffffffffffffffffff16908060010154908060020154908060030154905085565b600b60009054906101000a900473ffffffffffffffffffffffffffffffffffffffff1673ffffffffffffffffffffffffffffffffffffffff163373ffffffffffffffffffffffffffffffffffffffff1614611bed57600080fd5b601260009054906101000a900460ff1615601260006101000a81548160ff021916908315150217905550565b600b60009054906101000a900473ffffffffffffffffffffffffffffffffffffffff1681565b60001515601260009054906101000a900460ff16151514611c5f57600080fd5b60606000600160008773ffffffffffffffffffffffffffffffffffffffff1673ffffffffffffffffffffffffffffffffffffffff168152602001908152602001600020905082611ceb57600260008773ffffffffffffffffffffffffffffffffffffffff1673ffffffffffffffffffffffffffffffffffffffff16815260200190815260200160002090505b60008160010190506000818054905011611d6d576040517f08c379a00000000000000000000000000000000000000000000000000000000081526004018080602001828103825260108152602001807f4e6f2053495020746f206368617267650000000000000000000000000000000081525060200191505060405180910390fd5b600082600001600081548110611d7f57fe5b9060005260206000200160009054906101000a900473ffffffffffffffffffffffffffffffffffffffff169050600083600001600181548110611dbe57fe5b9060005260206000200160009054906101000a900473ffffffffffffffffffffffffffffffffffffffff169050600084600001905060008089868054905011611e1a576001868054905003995060008760030181905550611e24565b8987600301819055505b600060018c8c0301905060608167ffffffffffffffff81118015611e4757600080fd5b50604051908082528060200260200182016040528015611e8157816020015b611e6e61625e565b815260200190600190039081611e665790505b5090506000808e90505b8d81116120c757600760008b8381548110611ea257fe5b9060005260206000200154815260200190815260200160002060009054906101000a900460ff1615611ed3576120ba565b6000600560008c8481548110611ee557fe5b906000526020600020015481526020019081526020016000209050600015158160000160009054906101000a900460ff1615151415611f2457506120ba565b4281600201548260030154011115611f3c57506120ba565b600660008b73ffffffffffffffffffffffffffffffffffffffff1673ffffffffffffffffffffffffffffffffffffffff16815260200190815260200160002060008260000160019054906101000a900473ffffffffffffffffffffffffffffffffffffffff1673ffffffffffffffffffffffffffffffffffffffff1673ffffffffffffffffffffffffffffffffffffffff1681526020019081526020016000205481600101541115611fee57506120ba565b80600101548701965061202a81600101548260000160019054906101000a900473ffffffffffffffffffffffffffffffffffffffff168c6157d2565b60405180606001604052808c848154811061204157fe5b90600052602060002001548152602001826001015481526020018260000160019054906101000a900473ffffffffffffffffffffffffffffffffffffffff1673ffffffffffffffffffffffffffffffffffffffff168152508484815181106120a557fe5b60200260200101819052508280600101935050505b8080600101915050611e8b565b506000851161213e576040517f08c379a00000000000000000000000000000000000000000000000000000000081526004018080602001828103825260118152602001807f4e6f7468696e6720746f2063686172676500000000000000000000000000000081525060200191505060405180910390fd5b6060600960009054906101000a900473ffffffffffffffffffffffffffffffffffffffff1673ffffffffffffffffffffffffffffffffffffffff1663d06ca61f87896040518363ffffffff1660e01b81526004018083815260200180602001828103825283818154815260200191508054801561221057602002820191906000526020600020905b8160009054906101000a900473ffffffffffffffffffffffffffffffffffffffff1673ffffffffffffffffffffffffffffffffffffffff16815260200190600101908083116121c6575b5050935050505060006040518083038186803b15801561222f57600080fd5b505afa158015612243573d6000803e3d6000fd5b505050506040513d6000823e3d601f19601f82011682018060405250602081101561226d57600080fd5b810190808051604051939291908464010000000082111561228d57600080fd5b838201915060208201858111156122a357600080fd5b82518660208202830111640100000000821117156122c057600080fd5b8083526020830192505050908051906020019060200280838360005b838110156122f75780820151818401526020810190506122dc565b5050505090500160405250505090508873ffffffffffffffffffffffffffffffffffffffff1663095ea7b3600960009054906101000a900473ffffffffffffffffffffffffffffffffffffffff16886040518363ffffffff1660e01b8152600401808373ffffffffffffffffffffffffffffffffffffffff16815260200182815260200192505050602060405180830381600087803b15801561239957600080fd5b505af11580156123ad573d6000803e3d6000fd5b505050506040513d60208110156123c357600080fd5b8101908080519060200190929190505050612446576040517f08c379a000000000000000000000000000000000000000000000000000000000815260040180806020018281038252600e8152602001807f617070726f7665206661696c656400000000000000000000000000000000000081525060200191505060405180910390fd5b600960009054906101000a900473ffffffffffffffffffffffffffffffffffffffff1673ffffffffffffffffffffffffffffffffffffffff166338ed1739878360018151811061249257fe5b60200260200101518a306103e842016040518663ffffffff1660e01b815260040180868152602001858152602001806020018473ffffffffffffffffffffffffffffffffffffffff168152602001838152602001828103825285818154815260200191508054801561255957602002820191906000526020600020905b8160009054906101000a900473ffffffffffffffffffffffffffffffffffffffff1673ffffffffffffffffffffffffffffffffffffffff168152602001906001019080831161250f575b50509650505050505050600060405180830381600087803b15801561257d57600080fd5b505af1158015612591573d6000803e3d6000fd5b505050506040513d6000823e3d601f19601f8201168201806040525060208110156125bb57600080fd5b81019080805160405193929190846401000000008211156125db57600080fd5b838201915060208201858111156125f157600080fd5b825186602082028301116401000000008211171561260e57600080fd5b8083526020830192505050908051906020019060200280838360005b8381101561264557808201518184015260208101905061262a565b505050509050016040525050509b508b60018151811061266157fe5b60200260200101519450612687612678868a6158dd565b8661578890919063ffffffff16565b945060005b828110156128415760006126d2886126c4898886815181106126aa57fe5b60200260200101516020015161594290919063ffffffff16565b6159c890919063ffffffff16565b90506126f6818684815181106126e457fe5b6020026020010151604001518c615a12565b61272f85838151811061270557fe5b6020026020010151600001518287858151811061271e57fe5b602002602001015160200151615b1d565b6127a1576040517f08c379a000000000000000000000000000000000000000000000000000000000815260040180806020018281038252601b8152602001807f73657463757272656e74546f6b656e5374617473206661696c6564000000000081525060200191505060405180910390fd5b6127c18583815181106127b057fe5b602002602001015160000151615b7f565b612833576040517f08c379a00000000000000000000000000000000000000000000000000000000081526004018080602001828103825260148152602001807f7365744c617374506169644174206661696c656400000000000000000000000081525060200191505060405180910390fd5b50808060010191505061268c565b5050505050505050505050505050505050565b600073ffffffffffffffffffffffffffffffffffffffff168273ffffffffffffffffffffffffffffffffffffffff1614156128f7576040517f08c379a00000000000000000000000000000000000000000000000000000000081526004018080602001828103825260028152602001807f495400000000000000000000000000000000000000000000000000000000000081525060200191505060405180910390fd5b80600660008473ffffffffffffffffffffffffffffffffffffffff1673ffffffffffffffffffffffffffffffffffffffff16815260200190815260200160002060003373ffffffffffffffffffffffffffffffffffffffff1673ffffffffffffffffffffffffffffffffffffffff1681526020019081526020016000205410156129e9576040517f08c379a00000000000000000000000000000000000000000000000000000000081526004018080602001828103825260028152602001807f494200000000000000000000000000000000000000000000000000000000000081525060200191505060405180910390fd5b612a6f600660008473ffffffffffffffffffffffffffffffffffffffff1673ffffffffffffffffffffffffffffffffffffffff16815260200190815260200160002060003373ffffffffffffffffffffffffffffffffffffffff1673ffffffffffffffffffffffffffffffffffffffff1681526020019081526020016000205482615788565b600660008473ffffffffffffffffffffffffffffffffffffffff1673ffffffffffffffffffffffffffffffffffffffff16815260200190815260200160002060003373ffffffffffffffffffffffffffffffffffffffff1673ffffffffffffffffffffffffffffffffffffffff168152602001908152602001600020819055508173ffffffffffffffffffffffffffffffffffffffff1663a9059cbb33836040518363ffffffff1660e01b8152600401808373ffffffffffffffffffffffffffffffffffffffff16815260200182815260200192505050602060405180830381600087803b158015612b6057600080fd5b505af1158015612b74573d6000803e3d6000fd5b505050506040513d6020811015612b8a57600080fd5b8101908080519060200190929190505050612c0d576040517f08c379a00000000000000000000000000000000000000000000000000000000081526004018080602001828103825260028152602001807f574600000000000000000000000000000000000000000000000000000000000081525060200191505060405180910390fd5b3373ffffffffffffffffffffffffffffffffffffffff168273ffffffffffffffffffffffffffffffffffffffff167ff341246adaac6f497bc2a656f546ab9e182111d630394f0c57c710a59a2cb56783600660008773ffffffffffffffffffffffffffffffffffffffff1673ffffffffffffffffffffffffffffffffffffffff16815260200190815260200160002060003373ffffffffffffffffffffffffffffffffffffffff1673ffffffffffffffffffffffffffffffffffffffff16815260200190815260200160002054604051808381526020018281526020019250505060405180910390a35050565b600b60009054906101000a900473ffffffffffffffffffffffffffffffffffffffff1673ffffffffffffffffffffffffffffffffffffffff163373ffffffffffffffffffffffffffffffffffffffff1614612d5457600080fd5b80600c60006101000a81548173ffffffffffffffffffffffffffffffffffffffff021916908373ffffffffffffffffffffffffffffffffffffffff16021790555050565b600d5481565b600080600060036000858152602001908152602001600020905060008160020160009054906101000a900473ffffffffffffffffffffffffffffffffffffffff16905060008260000160009054906101000a900473ffffffffffffffffffffffffffffffffffffffff1690506000808373ffffffffffffffffffffffffffffffffffffffff168373ffffffffffffffffffffffffffffffffffffffff1610612e47578383612e4a565b82845b915091506000600860008473ffffffffffffffffffffffffffffffffffffffff1673ffffffffffffffffffffffffffffffffffffffff16815260200190815260200160002060008373ffffffffffffffffffffffffffffffffffffffff1673ffffffffffffffffffffffffffffffffffffffff16815260200190815260200160002060009054906101000a900473ffffffffffffffffffffffffffffffffffffffff16905060008473ffffffffffffffffffffffffffffffffffffffff168473ffffffffffffffffffffffffffffffffffffffff161415612f2a57600190505b80829850985050505050505050915091565b600b60009054906101000a900473ffffffffffffffffffffffffffffffffffffffff1673ffffffffffffffffffffffffffffffffffffffff163373ffffffffffffffffffffffffffffffffffffffff1614612f9657600080fd5b80600f8190555050565b600a60009054906101000a900473ffffffffffffffffffffffffffffffffffffffff1681565b612fce616295565b6003600083815260200190815260200160002060000160009054906101000a900473ffffffffffffffffffffffffffffffffffffffff168160006002811061301257fe5b602002019073ffffffffffffffffffffffffffffffffffffffff16908173ffffffffffffffffffffffffffffffffffffffff16815250506003600083815260200190815260200160002060020160009054906101000a900473ffffffffffffffffffffffffffffffffffffffff168160016002811061308d57fe5b602002019073ffffffffffffffffffffffffffffffffffffffff16908173ffffffffffffffffffffffffffffffffffffffff1681525050919050565b601260009054906101000a900460ff1681565b60006020528060005260406000206000915090505481565b6000801515601260009054906101000a900460ff1615151461311557600080fd5b6000339050601154851015613192576040517f08c379a000000000000000000000000000000000000000000000000000000000815260040180806020018281038252600d8152602001807f4d494e5f4652455155454e43590000000000000000000000000000000000000081525060200191505060405180910390fd5b60006131a9610e1087615bb290919063ffffffff16565b1461321c576040517f08c379a00000000000000000000000000000000000000000000000000000000081526004018080602001828103825260208152602001807f494e54454752414c5f4d554c5449504c455f4f465f484f55525f4e454544454481525060200191505060405180910390fd5b856132278483611010565b101561329b576040517f08c379a00000000000000000000000000000000000000000000000000000000081526004018080602001828103825260138152602001807f494e535546464943454e545f42414c414e43450000000000000000000000000081525060200191505060405180910390fd5b6132d081600e60009054906101000a900473ffffffffffffffffffffffffffffffffffffffff16600f54600a0a600202615bfc565b6001600d600082825401925050819055508273ffffffffffffffffffffffffffffffffffffffff168473ffffffffffffffffffffffffffffffffffffffff161415613383576040517f08c379a00000000000000000000000000000000000000000000000000000000081526004018080602001828103825260138152602001807f4944454e544943414c5f4144445245535345530000000000000000000000000081525060200191505060405180910390fd5b6000808473ffffffffffffffffffffffffffffffffffffffff168673ffffffffffffffffffffffffffffffffffffffff16106133c05784866133c3565b85855b91509150600073ffffffffffffffffffffffffffffffffffffffff168273ffffffffffffffffffffffffffffffffffffffff16141561346a576040517f08c379a000000000000000000000000000000000000000000000000000000000815260040180806020018281038252600c8152602001807f5a45524f5f41444452455353000000000000000000000000000000000000000081525060200191505060405180910390fd5b6000600a60009054906101000a900473ffffffffffffffffffffffffffffffffffffffff1673ffffffffffffffffffffffffffffffffffffffff1663e6a4390588886040518363ffffffff1660e01b8152600401808373ffffffffffffffffffffffffffffffffffffffff1681526020018273ffffffffffffffffffffffffffffffffffffffff1681526020019250505060206040518083038186803b15801561351357600080fd5b505afa158015613527573d6000803e3d6000fd5b505050506040513d602081101561353d57600080fd5b810190808051906020019092919050505090508673ffffffffffffffffffffffffffffffffffffffff168373ffffffffffffffffffffffffffffffffffffffff1614156138445760001515600160008373ffffffffffffffffffffffffffffffffffffffff1673ffffffffffffffffffffffffffffffffffffffff16815260200190815260200160002060020160009054906101000a900460ff16151514156137d457600160008273ffffffffffffffffffffffffffffffffffffffff1673ffffffffffffffffffffffffffffffffffffffff168152602001908152602001600020600001869080600181540180825580915050600190039060005260206000200160009091909190916101000a81548173ffffffffffffffffffffffffffffffffffffffff021916908373ffffffffffffffffffffffffffffffffffffffff160217905550600160008273ffffffffffffffffffffffffffffffffffffffff1673ffffffffffffffffffffffffffffffffffffffff168152602001908152602001600020600001879080600181540180825580915050600190039060005260206000200160009091909190916101000a81548173ffffffffffffffffffffffffffffffffffffffff021916908373ffffffffffffffffffffffffffffffffffffffff16021790555060018060008373ffffffffffffffffffffffffffffffffffffffff1673ffffffffffffffffffffffffffffffffffffffff16815260200190815260200160002060020160006101000a81548160ff0219169083151502179055506000600160008373ffffffffffffffffffffffffffffffffffffffff1673ffffffffffffffffffffffffffffffffffffffff168152602001908152602001600020600301819055506137d3838383615e63565b5b600160008273ffffffffffffffffffffffffffffffffffffffff1673ffffffffffffffffffffffffffffffffffffffff168152602001908152602001600020600101600d549080600181540180825580915050600190039060005260206000200160009091909190915055613b01565b60001515600260008373ffffffffffffffffffffffffffffffffffffffff1673ffffffffffffffffffffffffffffffffffffffff16815260200190815260200160002060020160009054906101000a900460ff1615151415613a9557600260008273ffffffffffffffffffffffffffffffffffffffff1673ffffffffffffffffffffffffffffffffffffffff168152602001908152602001600020600001869080600181540180825580915050600190039060005260206000200160009091909190916101000a81548173ffffffffffffffffffffffffffffffffffffffff021916908373ffffffffffffffffffffffffffffffffffffffff160217905550600260008273ffffffffffffffffffffffffffffffffffffffff1673ffffffffffffffffffffffffffffffffffffffff168152602001908152602001600020600001879080600181540180825580915050600190039060005260206000200160009091909190916101000a81548173ffffffffffffffffffffffffffffffffffffffff021916908373ffffffffffffffffffffffffffffffffffffffff1602179055506001600260008373ffffffffffffffffffffffffffffffffffffffff1673ffffffffffffffffffffffffffffffffffffffff16815260200190815260200160002060020160006101000a81548160ff0219169083151502179055506000600260008373ffffffffffffffffffffffffffffffffffffffff1673ffffffffffffffffffffffffffffffffffffffff16815260200190815260200160002060030181905550613a94838383615e63565b5b600260008273ffffffffffffffffffffffffffffffffffffffff1673ffffffffffffffffffffffffffffffffffffffff168152602001908152602001600020600101600d5490806001815401808255809150506001900390600052602060002001600090919091909150555b6040518060a001604052806001151581526020018573ffffffffffffffffffffffffffffffffffffffff1681526020018a8152602001898152602001613b508a4261578890919063ffffffff16565b81525060056000600d54815260200190815260200160002060008201518160000160006101000a81548160ff02191690831515021790555060208201518160000160016101000a81548173ffffffffffffffffffffffffffffffffffffffff021916908373ffffffffffffffffffffffffffffffffffffffff16021790555060408201518160010155606082015181600201556080820151816003015590505060405180608001604052808873ffffffffffffffffffffffffffffffffffffffff168152602001600081526020018773ffffffffffffffffffffffffffffffffffffffff168152602001600081525060036000600d54815260200190815260200160002060008201518160000160006101000a81548173ffffffffffffffffffffffffffffffffffffffff021916908373ffffffffffffffffffffffffffffffffffffffff1602179055506020820151816001015560408201518160020160006101000a81548173ffffffffffffffffffffffffffffffffffffffff021916908373ffffffffffffffffffffffffffffffffffffffff16021790555060608201518160030155905050600460008573ffffffffffffffffffffffffffffffffffffffff1673ffffffffffffffffffffffffffffffffffffffff168152602001908152602001600020600001600d5490806001815401808255809150506001900390600052602060002001600090919091909150558673ffffffffffffffffffffffffffffffffffffffff168473ffffffffffffffffffffffffffffffffffffffff16600d547f8ce78e5e59d7809eb7afac0af873cae7a1f71eb1920fd368dac0649e63adf8778c8c8b604051808481526020018381526020018273ffffffffffffffffffffffffffffffffffffffff168152602001935050505060405180910390a4600d54945050505050949350505050565b60135481565b60001515601260009054906101000a900460ff16151514613e2957600080fd5b60606000600160008673ffffffffffffffffffffffffffffffffffffffff1673ffffffffffffffffffffffffffffffffffffffff168152602001908152602001600020905082613eb557600260008673ffffffffffffffffffffffffffffffffffffffff1673ffffffffffffffffffffffffffffffffffffffff16815260200190815260200160002090505b60008160010190506000818054905011613f37576040517f08c379a00000000000000000000000000000000000000000000000000000000081526004018080602001828103825260108152602001807f4e6f2053495020746f206368617267650000000000000000000000000000000081525060200191505060405180910390fd5b600082600001600081548110613f4957fe5b9060005260206000200160009054906101000a900473ffffffffffffffffffffffffffffffffffffffff169050600083600001600181548110613f8857fe5b9060005260206000200160009054906101000a900473ffffffffffffffffffffffffffffffffffffffff16905060008460000190506000806000876003015490506000613fde8c8361570090919063ffffffff16565b90508088805490501161400457600188805490500390506000896003018190555061400e565b8089600301819055505b6000600183830301905060608167ffffffffffffffff8111801561403157600080fd5b5060405190808252806020026020018201604052801561406b57816020015b61405861625e565b8152602001906001900390816140505790505b5090506000808590505b8481116142b157600760008d838154811061408c57fe5b9060005260206000200154815260200190815260200160002060009054906101000a900460ff16156140bd576142a4565b6000600560008e84815481106140cf57fe5b906000526020600020015481526020019081526020016000209050600015158160000160009054906101000a900460ff161515141561410e57506142a4565b428160020154826003015401111561412657506142a4565b600660008d73ffffffffffffffffffffffffffffffffffffffff1673ffffffffffffffffffffffffffffffffffffffff16815260200190815260200160002060008260000160019054906101000a900473ffffffffffffffffffffffffffffffffffffffff1673ffffffffffffffffffffffffffffffffffffffff1673ffffffffffffffffffffffffffffffffffffffff16815260200190815260200160002054816001015411156141d857506142a4565b80600101548901985061421481600101548260000160019054906101000a900473ffffffffffffffffffffffffffffffffffffffff168e6157d2565b60405180606001604052808e848154811061422b57fe5b90600052602060002001548152602001826001015481526020018260000160019054906101000a900473ffffffffffffffffffffffffffffffffffffffff1673ffffffffffffffffffffffffffffffffffffffff1681525084848151811061428f57fe5b60200260200101819052508280600101935050505b8080600101915050614075565b5060008711614328576040517f08c379a00000000000000000000000000000000000000000000000000000000081526004018080602001828103825260118152602001807f4e6f7468696e6720746f2063686172676500000000000000000000000000000081525060200191505060405180910390fd5b6060600960009054906101000a900473ffffffffffffffffffffffffffffffffffffffff1673ffffffffffffffffffffffffffffffffffffffff1663d06ca61f898b6040518363ffffffff1660e01b8152600401808381526020018060200182810382528381815481526020019150805480156143fa57602002820191906000526020600020905b8160009054906101000a900473ffffffffffffffffffffffffffffffffffffffff1673ffffffffffffffffffffffffffffffffffffffff16815260200190600101908083116143b0575b5050935050505060006040518083038186803b15801561441957600080fd5b505afa15801561442d573d6000803e3d6000fd5b505050506040513d6000823e3d601f19601f82011682018060405250602081101561445757600080fd5b810190808051604051939291908464010000000082111561447757600080fd5b8382019150602082018581111561448d57600080fd5b82518660208202830111640100000000821117156144aa57600080fd5b8083526020830192505050908051906020019060200280838360005b838110156144e15780820151818401526020810190506144c6565b5050505090500160405250505090508a73ffffffffffffffffffffffffffffffffffffffff1663095ea7b3600960009054906101000a900473ffffffffffffffffffffffffffffffffffffffff168a6040518363ffffffff1660e01b8152600401808373ffffffffffffffffffffffffffffffffffffffff16815260200182815260200192505050602060405180830381600087803b15801561458357600080fd5b505af1158015614597573d6000803e3d6000fd5b505050506040513d60208110156145ad57600080fd5b8101908080519060200190929190505050614630576040517f08c379a000000000000000000000000000000000000000000000000000000000815260040180806020018281038252600e8152602001807f617070726f7665206661696c656400000000000000000000000000000000000081525060200191505060405180910390fd5b600960009054906101000a900473ffffffffffffffffffffffffffffffffffffffff1673ffffffffffffffffffffffffffffffffffffffff166338ed1739898360018151811061467c57fe5b60200260200101518c306103e842016040518663ffffffff1660e01b815260040180868152602001858152602001806020018473ffffffffffffffffffffffffffffffffffffffff168152602001838152602001828103825285818154815260200191508054801561474357602002820191906000526020600020905b8160009054906101000a900473ffffffffffffffffffffffffffffffffffffffff1673ffffffffffffffffffffffffffffffffffffffff16815260200190600101908083116146f9575b50509650505050505050600060405180830381600087803b15801561476757600080fd5b505af115801561477b573d6000803e3d6000fd5b505050506040513d6000823e3d601f19601f8201168201806040525060208110156147a557600080fd5b81019080805160405193929190846401000000008211156147c557600080fd5b838201915060208201858111156147db57600080fd5b82518660208202830111640100000000821117156147f857600080fd5b8083526020830192505050908051906020019060200280838360005b8381101561482f578082015181840152602081019050614814565b505050509050016040525050509d508d60018151811061484b57fe5b60200260200101519650614871614862888c6158dd565b8861578890919063ffffffff16565b965060005b82811015614a2b5760006148bc8a6148ae8b88868151811061489457fe5b60200260200101516020015161594290919063ffffffff16565b6159c890919063ffffffff16565b90506148e0818684815181106148ce57fe5b6020026020010151604001518e615a12565b6149198583815181106148ef57fe5b6020026020010151600001518287858151811061490857fe5b602002602001015160200151615b1d565b61498b576040517f08c379a000000000000000000000000000000000000000000000000000000000815260040180806020018281038252601b8152602001807f73657463757272656e74546f6b656e5374617473206661696c6564000000000081525060200191505060405180910390fd5b6149ab85838151811061499a57fe5b602002602001015160000151615b7f565b614a1d576040517f08c379a00000000000000000000000000000000000000000000000000000000081526004018080602001828103825260148152602001807f7365744c617374506169644174206661696c656400000000000000000000000081525060200191505060405180910390fd5b508080600101915050614876565b505050505050505050505050505050505050565b600080614a57610e1084615bb290919063ffffffff16565b9050610708811115614a9257614a8a81614a7c610e108661570090919063ffffffff16565b61578890919063ffffffff16565b915050614aa9565b614aa5818461578890919063ffffffff16565b9150505b919050565b60001515601260009054906101000a900460ff16151514614ace57600080fd5b6060600060036000848152602001908152602001600020905060008160020160009054906101000a900473ffffffffffffffffffffffffffffffffffffffff16905060008260000160009054906101000a900473ffffffffffffffffffffffffffffffffffffffff1690506000806060600267ffffffffffffffff81118015614b5657600080fd5b50604051908082528060200260200182016040528015614b855781602001602082028036833780820191505090505b5090508481600081518110614b9657fe5b602002602001019073ffffffffffffffffffffffffffffffffffffffff16908173ffffffffffffffffffffffffffffffffffffffff16815250508381600181518110614bde57fe5b602002602001019073ffffffffffffffffffffffffffffffffffffffff16908173ffffffffffffffffffffffffffffffffffffffff16815250506000600560008a81526020019081526020016000209050600115158160000160009054906101000a900460ff16151514614cba576040517f08c379a00000000000000000000000000000000000000000000000000000000081526004018080602001828103825260038152602001807f4e5653000000000000000000000000000000000000000000000000000000000081525060200191505060405180910390fd5b4281600201548260030154011115614d3a576040517f08c379a00000000000000000000000000000000000000000000000000000000081526004018080602001828103825260038152602001807f435445000000000000000000000000000000000000000000000000000000000081525060200191505060405180910390fd5b600660008773ffffffffffffffffffffffffffffffffffffffff1673ffffffffffffffffffffffffffffffffffffffff16815260200190815260200160002060008260000160019054906101000a900473ffffffffffffffffffffffffffffffffffffffff1673ffffffffffffffffffffffffffffffffffffffff1673ffffffffffffffffffffffffffffffffffffffff1681526020019081526020016000205481600101541115614e54576040517f08c379a00000000000000000000000000000000000000000000000000000000081526004018080602001828103825260028152602001807f494200000000000000000000000000000000000000000000000000000000000081525060200191505060405180910390fd5b80600101549350614e8e81600101548260000160019054906101000a900473ffffffffffffffffffffffffffffffffffffffff16886157d2565b60008411614f04576040517f08c379a00000000000000000000000000000000000000000000000000000000081526004018080602001828103825260118152602001807f4e6f7468696e6720746f2063686172676500000000000000000000000000000081525060200191505060405180910390fd5b6060600960009054906101000a900473ffffffffffffffffffffffffffffffffffffffff1673ffffffffffffffffffffffffffffffffffffffff1663d06ca61f86856040518363ffffffff1660e01b81526004018083815260200180602001828103825283818151815260200191508051906020019060200280838360005b83811015614f9e578082015181840152602081019050614f83565b50505050905001935050505060006040518083038186803b158015614fc257600080fd5b505afa158015614fd6573d6000803e3d6000fd5b505050506040513d6000823e3d601f19601f82011682018060405250602081101561500057600080fd5b810190808051604051939291908464010000000082111561502057600080fd5b8382019150602082018581111561503657600080fd5b825186602082028301116401000000008211171561505357600080fd5b8083526020830192505050908051906020019060200280838360005b8381101561508a57808201518184015260208101905061506f565b5050505090500160405250505090508673ffffffffffffffffffffffffffffffffffffffff1663095ea7b3600960009054906101000a900473ffffffffffffffffffffffffffffffffffffffff16876040518363ffffffff1660e01b8152600401808373ffffffffffffffffffffffffffffffffffffffff16815260200182815260200192505050602060405180830381600087803b15801561512c57600080fd5b505af1158015615140573d6000803e3d6000fd5b505050506040513d602081101561515657600080fd5b81019080805190602001909291905050506151d9576040517f08c379a000000000000000000000000000000000000000000000000000000000815260040180806020018281038252600e8152602001807f617070726f7665206661696c656400000000000000000000000000000000000081525060200191505060405180910390fd5b600960009054906101000a900473ffffffffffffffffffffffffffffffffffffffff1673ffffffffffffffffffffffffffffffffffffffff166338ed1739868360018151811061522557fe5b602002602001015186306103e842016040518663ffffffff1660e01b815260040180868152602001858152602001806020018473ffffffffffffffffffffffffffffffffffffffff168152602001838152602001828103825285818151815260200191508051906020019060200280838360005b838110156152b4578082015181840152602081019050615299565b505050509050019650505050505050600060405180830381600087803b1580156152dd57600080fd5b505af11580156152f1573d6000803e3d6000fd5b505050506040513d6000823e3d601f19601f82011682018060405250602081101561531b57600080fd5b810190808051604051939291908464010000000082111561533b57600080fd5b8382019150602082018581111561535157600080fd5b825186602082028301116401000000008211171561536e57600080fd5b8083526020830192505050908051906020019060200280838360005b838110156153a557808201518184015260208101905061538a565b505050509050016040525050509850886001815181106153c157fe5b602002602001015193506153e76153d885886158dd565b8561578890919063ffffffff16565b9350615418848360000160019054906101000a900473ffffffffffffffffffffffffffffffffffffffff1688615a12565b6154278a858460010154615b1d565b615499576040517f08c379a000000000000000000000000000000000000000000000000000000000815260040180806020018281038252601b8152602001807f73657463757272656e74546f6b656e5374617473206661696c6564000000000081525060200191505060405180910390fd5b6154a28a615b7f565b615514576040517f08c379a00000000000000000000000000000000000000000000000000000000081526004018080602001828103825260148152602001807f7365744c617374506169644174206661696c656400000000000000000000000081525060200191505060405180910390fd5b50505050505050505050565b600b60009054906101000a900473ffffffffffffffffffffffffffffffffffffffff1673ffffffffffffffffffffffffffffffffffffffff163373ffffffffffffffffffffffffffffffffffffffff161461557a57600080fd5b8060118190555050565b60086020528160005260406000206020528060005260406000206000915091509054906101000a900473ffffffffffffffffffffffffffffffffffffffff1681565b3373ffffffffffffffffffffffffffffffffffffffff16600c60009054906101000a900473ffffffffffffffffffffffffffffffffffffffff1673ffffffffffffffffffffffffffffffffffffffff16141561565e5733600b60006101000a81548173ffffffffffffffffffffffffffffffffffffffff021916908373ffffffffffffffffffffffffffffffffffffffff1602179055505b565b6060600460008373ffffffffffffffffffffffffffffffffffffffff1673ffffffffffffffffffffffffffffffffffffffff1681526020019081526020016000206000018054806020026020016040519081016040528092919081815260200182805480156156ee57602002820191906000526020600020905b8154815260200190600101908083116156da575b50505050509050919050565b60115481565b60008082840190508381101561577e576040517f08c379a000000000000000000000000000000000000000000000000000000000815260040180806020018281038252601b8152602001807f536166654d6174683a206164646974696f6e206f766572666c6f77000000000081525060200191505060405180910390fd5b8091505092915050565b60006157ca83836040518060400160405280601e81526020017f536166654d6174683a207375627472616374696f6e206f766572666c6f770000815250615ff5565b905092915050565b615858600660008373ffffffffffffffffffffffffffffffffffffffff1673ffffffffffffffffffffffffffffffffffffffff16815260200190815260200160002060008473ffffffffffffffffffffffffffffffffffffffff1673ffffffffffffffffffffffffffffffffffffffff1681526020019081526020016000205484615788565b600660008373ffffffffffffffffffffffffffffffffffffffff1673ffffffffffffffffffffffffffffffffffffffff16815260200190815260200160002060008473ffffffffffffffffffffffffffffffffffffffff1673ffffffffffffffffffffffffffffffffffffffff16815260200190815260200160002081905550505050565b6000806159096127106158fb6013548761594290919063ffffffff16565b6159c890919063ffffffff16565b905061593881601060009054906101000a900473ffffffffffffffffffffffffffffffffffffffff1685615a12565b8091505092915050565b60008083141561595557600090506159c2565b600082840290508284828161596657fe5b04146159bd576040517f08c379a00000000000000000000000000000000000000000000000000000000081526004018080602001828103825260218152602001806162b86021913960400191505060405180910390fd5b809150505b92915050565b6000615a0a83836040518060400160405280601a81526020017f536166654d6174683a206469766973696f6e206279207a65726f0000000000008152506160b5565b905092915050565b615a98600660008373ffffffffffffffffffffffffffffffffffffffff1673ffffffffffffffffffffffffffffffffffffffff16815260200190815260200160002060008473ffffffffffffffffffffffffffffffffffffffff1673ffffffffffffffffffffffffffffffffffffffff1681526020019081526020016000205484615700565b600660008373ffffffffffffffffffffffffffffffffffffffff1673ffffffffffffffffffffffffffffffffffffffff16815260200190815260200160002060008473ffffffffffffffffffffffffffffffffffffffff1673ffffffffffffffffffffffffffffffffffffffff16815260200190815260200160002081905550505050565b600080600360008681526020019081526020016000209050615b4c84826001015461570090919063ffffffff16565b8160010181905550615b6b83826003015461570090919063ffffffff16565b816003018190555060019150509392505050565b600080600560008481526020019081526020016000209050615ba042614a3f565b81600301819055506001915050919050565b6000615bf483836040518060400160405280601881526020017f536166654d6174683a206d6f64756c6f206279207a65726f000000000000000081525061617b565b905092915050565b615c8b81600660008573ffffffffffffffffffffffffffffffffffffffff1673ffffffffffffffffffffffffffffffffffffffff16815260200190815260200160002060008673ffffffffffffffffffffffffffffffffffffffff1673ffffffffffffffffffffffffffffffffffffffff1681526020019081526020016000205461578890919063ffffffff16565b600660008473ffffffffffffffffffffffffffffffffffffffff1673ffffffffffffffffffffffffffffffffffffffff16815260200190815260200160002060008573ffffffffffffffffffffffffffffffffffffffff1673ffffffffffffffffffffffffffffffffffffffff16815260200190815260200160002081905550615dbc81600660008573ffffffffffffffffffffffffffffffffffffffff1673ffffffffffffffffffffffffffffffffffffffff1681526020019081526020016000206000601060009054906101000a900473ffffffffffffffffffffffffffffffffffffffff1673ffffffffffffffffffffffffffffffffffffffff1673ffffffffffffffffffffffffffffffffffffffff1681526020019081526020016000205461570090919063ffffffff16565b600660008473ffffffffffffffffffffffffffffffffffffffff1673ffffffffffffffffffffffffffffffffffffffff1681526020019081526020016000206000601060009054906101000a900473ffffffffffffffffffffffffffffffffffffffff1673ffffffffffffffffffffffffffffffffffffffff1673ffffffffffffffffffffffffffffffffffffffff16815260200190815260200160002081905550505050565b600073ffffffffffffffffffffffffffffffffffffffff16600860008573ffffffffffffffffffffffffffffffffffffffff1673ffffffffffffffffffffffffffffffffffffffff16815260200190815260200160002060008473ffffffffffffffffffffffffffffffffffffffff1673ffffffffffffffffffffffffffffffffffffffff16815260200190815260200160002060009054906101000a900473ffffffffffffffffffffffffffffffffffffffff1673ffffffffffffffffffffffffffffffffffffffff161415615ff05780600860008573ffffffffffffffffffffffffffffffffffffffff1673ffffffffffffffffffffffffffffffffffffffff16815260200190815260200160002060008473ffffffffffffffffffffffffffffffffffffffff1673ffffffffffffffffffffffffffffffffffffffff16815260200190815260200160002060006101000a81548173ffffffffffffffffffffffffffffffffffffffff021916908373ffffffffffffffffffffffffffffffffffffffff1602179055505b505050565b60008383111582906160a2576040517f08c379a00000000000000000000000000000000000000000000000000000000081526004018080602001828103825283818151815260200191508051906020019080838360005b8381101561606757808201518184015260208101905061604c565b50505050905090810190601f1680156160945780820380516001836020036101000a031916815260200191505b509250505060405180910390fd5b5060008385039050809150509392505050565b60008083118290616161576040517f08c379a00000000000000000000000000000000000000000000000000000000081526004018080602001828103825283818151815260200191508051906020019080838360005b8381101561612657808201518184015260208101905061610b565b50505050905090810190601f1680156161535780820380516001836020036101000a031916815260200191505b509250505060405180910390fd5b50600083858161616d57fe5b049050809150509392505050565b6000808314158290616228576040517f08c379a00000000000000000000000000000000000000000000000000000000081526004018080602001828103825283818151815260200191508051906020019080838360005b838110156161ed5780820151818401526020810190506161d2565b50505050905090810190601f16801561621a5780820380516001836020036101000a031916815260200191505b509250505060405180910390fd5b5082848161623257fe5b0690509392505050565b6040518060400160405280600290602082028036833780820191505090505090565b60405180606001604052806000815260200160008152602001600073ffffffffffffffffffffffffffffffffffffffff1681525090565b604051806040016040528060029060208202803683378082019150509050509056fe536166654d6174683a206d756c7469706c69636174696f6e206f766572666c6f77a2646970667358221220ae3a37cae24b5a9714efbd63c9e8f1d34de6efcb89b24ba2ee40232a564959a464736f6c63430007020033",
  "immutableReferences": {},
  "source": "pragma solidity ^0.7.2;\n\nlibrary SafeMath {\n    function add(uint256 a, uint256 b) internal pure returns (uint256) {\n        uint256 c = a + b;\n        require(c >= a, \"SafeMath: addition overflow\");\n        return c;\n    }\n\n    function sub(uint256 a, uint256 b) internal pure returns (uint256) {\n        return sub(a, b, \"SafeMath: subtraction overflow\");\n    }\n\n    function sub(uint256 a,uint256 b,string memory errorMessage) internal pure returns (uint256) {\n        require(b <= a, errorMessage);\n        uint256 c = a - b;\n        return c;\n    }\n\n    function mul(uint256 a, uint256 b) internal pure returns (uint256) {\n        if (a == 0) {\n            return 0;\n        }\n        uint256 c = a * b;\n        require(c / a == b, \"SafeMath: multiplication overflow\");\n        return c;\n    }\n\n    function div(uint256 a, uint256 b) internal pure returns (uint256) {\n        return div(a, b, \"SafeMath: division by zero\");\n    }\n\n    function div(uint256 a, uint256 b, string memory errorMessage) internal pure returns (uint256) {\n        require(b > 0, errorMessage);\n        uint256 c = a / b;\n        return c;\n    }\n\n    function mod(uint256 a, uint256 b) internal pure returns (uint256) {\n        return mod(a, b, \"SafeMath: modulo by zero\");\n    }\n\n    function mod(uint256 a, uint256 b, string memory errorMessage) internal pure returns (uint256) {\n        require(b != 0, errorMessage);\n        return a % b;\n    }\n}\n\ninterface IUniswapV2Factory {\n\n    function getPair(address tokenA, address tokenB) external view returns (address pair);\n}\n\ninterface Uniswap {\n    \n    function swapExactTokensForTokens(\n        uint amountIn,\n        uint amountOutMin,\n        address[] calldata path,\n        address to,\n        uint deadline\n    ) external returns (uint[] memory amounts);\n\n    function getAmountsOut(uint amountIn, address[] calldata path) external view returns (uint[] memory amounts);\n}\n\nabstract contract Token {\n    \n    function transfer(address to, uint256 value) public virtual returns (bool);\n    \n    function transferFrom(address from, address to, uint256 value) public virtual returns (bool);\n    \n    function approve(address _spender, uint256 _value) public virtual returns (bool);\n    \n}\n\ncontract SIP {\n    using SafeMath for uint256;\n\n    event SubscribeToSpp(uint256 indexed sppID,address indexed customerAddress,uint256 value,uint256 period,address indexed tokenGet,address tokenGive);\n    event ChargeSpp(uint256 sppID);\n    event CloseSpp(uint256 sppID);\n    event Deposit(address indexed token,address indexed user,uint256 amount,uint256 balance);\n    event Withdraw(address indexed token,address indexed user,uint256 amount,uint256 balance);\n\n    modifier _ownerOnly() {\n        require(msg.sender == owner);\n        _;\n    }\n\n    modifier _ifNotLocked() {\n        require(scLock == false);\n        _;\n    }\n\n    function setLock() public _ownerOnly {\n        scLock = !scLock;\n    }\n\n    function changeOwner(address owner_) public _ownerOnly {\n        potentialAdmin = owner_;\n    }\n\n    function becomeOwner() public {\n        if (potentialAdmin == msg.sender) owner = msg.sender;\n    }\n\n    function depositToken(address token, uint256 amount) public {\n        require(token != address(0), \"IT\");\n        require(Token(token).transferFrom(msg.sender, address(this), amount), \"TF\");\n        tokens[token][msg.sender] = SafeMath.add(\n            tokens[token][msg.sender],\n            amount\n        );\n        emit Deposit(token, msg.sender, amount, tokens[token][msg.sender]);\n    }\n\n    function withdrawToken(address token, uint256 amount) public {\n        require(token != address(0), \"IT\");\n        require(tokens[token][msg.sender] >= amount, \"IB\");\n        tokens[token][msg.sender] = SafeMath.sub(\n            tokens[token][msg.sender],\n            amount\n        );\n        require(Token(token).transfer(msg.sender, amount), \"WF\");\n        emit Withdraw(token, msg.sender, amount, tokens[token][msg.sender]);\n    }\n\n    function tokenBalanceOf(address token, address user) public view returns (uint256 balance) {\n        return tokens[token][user];\n    }\n    \n    function _storePairDetails(address _token0, address _token1, address _pair) internal {\n         if(pairDetails[_token0][_token1]==address(0)){ // NOT SET YET\n             pairDetails[_token0][_token1] = _pair;\n         }\n    }    \n    \n\n    function subscribeToSpp(uint256 value, uint256 period, address tokenGet, address tokenGive) public _ifNotLocked returns (uint256 sID) {\n        address customerAddress = msg.sender;\n        require(period >= minPeriod, \"MIN_FREQUENCY\");\n        require(period.mod(3600) == 0, \"INTEGRAL_MULTIPLE_OF_HOUR_NEEDED\");\n        require(tokenBalanceOf(tokenGive,customerAddress) >= value, \"INSUFFICENT_BALANCE\");\n            _deductFee(customerAddress, usdt, uint256(2 * (10**usdtDecimal)));\n            sppID += 1;\n            \n            require(tokenGet != tokenGive, 'IDENTICAL_ADDRESSES');\n            (address token0, address token1) = tokenGet < tokenGive ? (tokenGet, tokenGive) : (tokenGive, tokenGet);\n            require(token0 != address(0), 'ZERO_ADDRESS');\n            address pair = IUniswapV2Factory(factory).getPair(tokenGet, tokenGive); //reverse this and try\n            \n            if(token0==tokenGet){\n                if(map1[pair].exists== false){\n                    map1[pair].token.push(tokenGive);\n                    map1[pair].token.push(tokenGet);\n                    map1[pair].exists = true;\n                    map1[pair].position = 0;\n                    _storePairDetails(token0, token1, pair);\n                }\n                map1[pair].sppList.push(sppID);\n            }\n            else{\n                if(map2[pair].exists== false){\n                    map2[pair].token.push(tokenGive);\n                    map2[pair].token.push(tokenGet);\n                    map2[pair].exists = true;\n                    map2[pair].position = 0;\n                    _storePairDetails(token0, token1, pair);\n                }\n                map2[pair].sppList.push(sppID);\n            }\n            \n            sppSubscriptionStats[sppID] = sppSubscribers({\n                exists: true,\n                customerAddress: customerAddress,\n                value: value,\n                period: period,\n                lastPaidAt: (block.timestamp).sub(period)\n            });\n            tokenStats[sppID] = currentTokenStats({\n                TokenToGet: tokenGet,\n                TokenToGive: tokenGive,\n                amountGotten: 0,\n                amountGiven: 0\n            });\n            sppSubList[customerAddress].arr.push(sppID);\n            emit SubscribeToSpp(sppID,customerAddress,value,period,tokenGet,tokenGive);\n            return sppID;\n    }\n    \n    \n    function chargeSppIndex(address pair, uint256 start, uint256 end, bool _upwards) public _ifNotLocked{\n        \n        uint256[] memory result;\n        pairStats storage _pairData = map1[pair]; \n        \n        if(!_upwards){\n           _pairData = map2[pair]; \n        }\n        \n        uint256[] storage sppList = _pairData.sppList;\n        \n        require(sppList.length > 0 , \"No SIP to charge\");\n        \n        address tokenGive = _pairData.token[0];\n        address tokenGet = _pairData.token[1];\n        address[] storage pathSwap = _pairData.token;\n        \n        uint256 finalAmountGive = 0;\n        uint256 finalAmountGotten = 0;\n        \n        if(sppList.length <= end){\n            end = sppList.length - 1;\n            _pairData.position = 0;\n        }\n        else {\n            _pairData.position = end;\n        }\n        \n        uint256 len = (end - start + 1);\n        \n        chargeSppStruct[] memory sppCharged = new chargeSppStruct[](len);\n        \n        uint successIndex = 0;\n        \n        for(uint256 i=start; i<=end; i++){\n\n            if(inactiveSIP[sppList[i]]){\n                continue; // SIP not active - No need to load data\n            }\n            sppSubscribers storage _subscriptionData = sppSubscriptionStats[sppList[i]];\n            if(_subscriptionData.exists==false){\n                continue; // SIP is still active\n            }\n            else if(_subscriptionData.lastPaidAt + _subscriptionData.period > block.timestamp){\n                continue; // Charging too early\n            }\n            else if(_subscriptionData.value > tokens[tokenGive][_subscriptionData.customerAddress]){\n                continue; // Insufficient Balance\n            }\n            else {\n                finalAmountGive += _subscriptionData.value;\n                _deductTokens(_subscriptionData.value, _subscriptionData.customerAddress, tokenGive);\n                sppCharged[successIndex] = chargeSppStruct({\n                    sppId: sppList[i],\n                    amt: _subscriptionData.value,\n                    custAdd: _subscriptionData.customerAddress\n                });\n                successIndex++;\n            }\n        }\n        \n        \n        require(finalAmountGive > 0 , \"Nothing to charge\");\n        \n        uint256[] memory amounts = Uniswap(uniswapContractAddress).getAmountsOut(finalAmountGive, pathSwap);\n        \n        require(Token(tokenGive).approve(uniswapContractAddress,finalAmountGive),\"approve failed\");\n        result = Uniswap(uniswapContractAddress).swapExactTokensForTokens(finalAmountGive, amounts[1], pathSwap, address(this), block.timestamp+1000);\n        \n        // take some fee here first\n        finalAmountGotten = result[1];\n        finalAmountGotten = finalAmountGotten.sub(_deductSppFee(finalAmountGotten, tokenGet));\n        \n        for(uint256 k=0; k<successIndex; k++){\n            uint256 _credAmt = ((sppCharged[k].amt).mul(finalAmountGotten)).div(finalAmountGive);\n            _creditTokens( _credAmt, sppCharged[k].custAdd, tokenGet);\n            require(setcurrentTokenStats(sppCharged[k].sppId, _credAmt, sppCharged[k].amt),\"setcurrentTokenStats failed\");\n            require(setLastPaidAt(sppCharged[k].sppId),\"setLastPaidAt failed\");\n        }\n    }\n\n\n    function chargeSppByID(uint256 sppID) public _ifNotLocked{\n        \n        uint256[] memory result;\n        currentTokenStats storage _tokenStats = tokenStats[sppID];\n        \n        address tokenGive = _tokenStats.TokenToGive;\n        address tokenGet = _tokenStats.TokenToGet;\n        \n        uint256 finalAmountGive = 0;\n        uint256 finalAmountGotten = 0;\n        \n        address[] memory paths = new address[](2);\n        paths[0] = tokenGive;\n        paths[1] = tokenGet;\n        \n\n        sppSubscribers storage _subscriptionData = sppSubscriptionStats[sppID];\n        require(_subscriptionData.exists==true, \"NVS\");\n        require(_subscriptionData.lastPaidAt + _subscriptionData.period <= block.timestamp, \"CTE\");\n        require(_subscriptionData.value <= tokens[tokenGive][_subscriptionData.customerAddress], \"IB\");\n\n        finalAmountGive = _subscriptionData.value;\n        _deductTokens(_subscriptionData.value, _subscriptionData.customerAddress, tokenGive);\n\n        require(finalAmountGive > 0 , \"Nothing to charge\");\n        \n        uint256[] memory amounts = Uniswap(uniswapContractAddress).getAmountsOut(finalAmountGive, paths);\n        \n        require(Token(tokenGive).approve(uniswapContractAddress,finalAmountGive),\"approve failed\");\n        result = Uniswap(uniswapContractAddress).swapExactTokensForTokens(finalAmountGive, amounts[1], paths, address(this), block.timestamp+1000);\n        \n        // take some fee here first\n        finalAmountGotten = result[1];\n        finalAmountGotten = finalAmountGotten.sub(_deductSppFee(finalAmountGotten, tokenGet));\n\n        _creditTokens( finalAmountGotten, _subscriptionData.customerAddress, tokenGet);\n        require(setcurrentTokenStats(sppID, finalAmountGotten, _subscriptionData.value),\"setcurrentTokenStats failed\");\n        require(setLastPaidAt(sppID),\"setLastPaidAt failed\");\n\n    }\n    \n\n      function chargeSppAll(address pair, uint256 toCharge, bool _upwards) public _ifNotLocked{\n        \n        uint256[] memory result;\n        pairStats storage _pairData = map1[pair]; \n        \n        if(!_upwards){\n           _pairData = map2[pair]; \n        }\n        \n        uint256[] storage sppList = _pairData.sppList;\n        \n        require(sppList.length > 0 , \"No SIP to charge\");\n        \n        address tokenGive = _pairData.token[0];\n        address tokenGet = _pairData.token[1];\n        address[] storage pathSwap = _pairData.token;\n        \n        uint256 finalAmountGive = 0;\n        uint256 finalAmountGotten = 0;\n\n        uint256 start = _pairData.position;\n        uint256 end = start.add(toCharge);\n        \n        if(sppList.length <= end){\n            end = sppList.length - 1;\n            _pairData.position = 0;\n        }\n        else {\n            _pairData.position = end;\n        }\n        \n        uint256 len = (end - start + 1);\n        \n        chargeSppStruct[] memory sppCharged = new chargeSppStruct[](len);\n        \n        uint successIndex = 0;\n        \n        for(uint256 i=start; i<=end; i++){\n\n            if(inactiveSIP[sppList[i]]){\n                continue; // SIP not active - No need to load data\n            }\n\n            sppSubscribers storage _subscriptionData = sppSubscriptionStats[sppList[i]];\n            if(_subscriptionData.exists==false){\n                continue; // SIP is not active\n            }\n            else if(_subscriptionData.lastPaidAt + _subscriptionData.period > block.timestamp){\n                continue; // Charging too early\n            }\n            else if(_subscriptionData.value > tokens[tokenGive][_subscriptionData.customerAddress]){\n                continue; // Insufficient Balance\n            }\n            else {\n                finalAmountGive += _subscriptionData.value;\n                _deductTokens(_subscriptionData.value, _subscriptionData.customerAddress, tokenGive);\n                sppCharged[successIndex] = chargeSppStruct({\n                    sppId: sppList[i],\n                    amt: _subscriptionData.value,\n                    custAdd: _subscriptionData.customerAddress\n                });\n                successIndex++;\n            }\n        }\n        \n        \n        require(finalAmountGive > 0 , \"Nothing to charge\");\n        \n        uint256[] memory amounts = Uniswap(uniswapContractAddress).getAmountsOut(finalAmountGive, pathSwap);\n        \n        require(Token(tokenGive).approve(uniswapContractAddress,finalAmountGive),\"approve failed\");\n        result = Uniswap(uniswapContractAddress).swapExactTokensForTokens(finalAmountGive, amounts[1], pathSwap, address(this), block.timestamp+1000);\n        \n        // take some fee here first\n        finalAmountGotten = result[1];\n        finalAmountGotten = finalAmountGotten.sub(_deductSppFee(finalAmountGotten, tokenGet));\n        \n        for(uint256 k=0; k<successIndex; k++){\n            uint256 _credAmt = ((sppCharged[k].amt).mul(finalAmountGotten)).div(finalAmountGive);\n            _creditTokens( _credAmt, sppCharged[k].custAdd, tokenGet);\n            require(setcurrentTokenStats(sppCharged[k].sppId, _credAmt, sppCharged[k].amt),\"setcurrentTokenStats failed\");\n            require(setLastPaidAt(sppCharged[k].sppId),\"setLastPaidAt failed\");\n        }\n    }\n    \n \n    function _deductSppFee(uint256 _amt, address _token) internal returns (uint256) {\n        uint256 _feeAmt = ((_amt).mul(fee)).div(10000);\n        _creditTokens(_feeAmt, feeAccount, _token);\n        return _feeAmt;\n    }\n    \n    function _deductTokens(uint256 _amt, address _custAdd, address _token) internal {\n        tokens[_token][_custAdd] = SafeMath.sub(tokens[_token][_custAdd],_amt);\n    }\n    \n    function _creditTokens(uint256 _amt, address _custAdd, address _token) internal {\n        tokens[_token][_custAdd] = SafeMath.add(tokens[_token][_custAdd],_amt);\n    }\n    \n\n    function closeSpp(uint256 sppID) public returns (bool success) {\n        require(msg.sender == sppSubscriptionStats[sppID].customerAddress, \"NA\");\n        sppSubscriptionStats[sppID].exists = false;\n        inactiveSIP[sppID] = true;\n        emit CloseSpp(sppID);\n        return true;\n    }\n    \n    function _deductFee(address customerAddress, address token, uint256 amount) internal {\n        tokens[token][customerAddress] = tokens[token][customerAddress].sub(amount);\n        tokens[token][feeAccount] = tokens[token][feeAccount].add(amount);\n    }\n    \n\n    function setAddresses(address usdt1, address feeAccount1, address uniswapContractAddress1, address factory1) public _ownerOnly {\n        usdt = usdt1;\n        feeAccount = feeAccount1;\n        uniswapContractAddress = uniswapContractAddress1;\n        factory = factory1;\n    }\n\n    function setUsdtDecimal(uint256 decimal) public _ownerOnly {\n        usdtDecimal = decimal;\n    }\n\n    function setMinPeriod(uint256 p) public _ownerOnly {\n        minPeriod = p;\n    }\n\n    function setLastPaidAt(uint256 sppID) internal returns (bool success) {\n        sppSubscribers storage _subscriptionData = sppSubscriptionStats[sppID];\n        _subscriptionData.lastPaidAt = getNearestHour(block.timestamp);\n        return true;\n    }\n\n    function setcurrentTokenStats(uint256 sppID, uint256 amountGotten, uint256 amountGiven) internal returns (bool success) {\n        currentTokenStats storage _tokenStats = tokenStats[sppID];\n        _tokenStats.amountGotten = _tokenStats.amountGotten.add(amountGotten);\n        _tokenStats.amountGiven = _tokenStats.amountGiven.add(amountGiven);\n        return true;\n    }\n\n    function isActiveSpp(uint256 sppID) public view returns (bool res) {\n        return sppSubscriptionStats[sppID].exists;\n    }\n    \n     function getLatestSppId() public view returns (uint256 sppId) {\n        return sppID;\n    }\n\n    function getlistOfSppSubscriptions(address _from) public view returns (uint256[] memory arr) {\n        return sppSubList[_from].arr;\n    }\n\n    function getcurrentTokenAmounts(uint256 sppID) public view returns (uint256[2] memory arr) {\n        arr[0] = tokenStats[sppID].amountGotten;\n        arr[1] = tokenStats[sppID].amountGiven;\n        return arr;\n    }\n\n    function getTokenStats(uint256 sppID) public view returns (address[2] memory arr) {\n        arr[0] = tokenStats[sppID].TokenToGet;\n        arr[1] = tokenStats[sppID].TokenToGive;\n        return arr;\n    }\n    \n    function fetchPairAndDirection(uint256 sppID) public view returns (bool direction, address pair) {\n        currentTokenStats storage _tokenStats = tokenStats[sppID];\n        \n        address tokenGive = _tokenStats.TokenToGive;\n        address tokenGet = _tokenStats.TokenToGet;\n\n        (address token0, address token1) = tokenGet < tokenGive ? (tokenGet, tokenGive) : (tokenGive, tokenGet);\n\n        address _pair = pairDetails[token0][token1];\n        bool _direction = false;\n\n        if(token0==tokenGet){\n            _direction = true;\n        }\n        return (_direction, _pair);\n    }\n    \n    function fetchPathDetailsAdd(address _pair, bool _upwards) public view returns (address[] memory arr) {\n        if (_upwards){\n           return map1[_pair].token; \n        }\n        else {\n            return map2[_pair].token;\n        }\n    }\n    \n    function fetchPathDetailsSPP(address _pair, bool _upwards) public view returns (uint256[] memory arr) {\n        if (_upwards){\n           return map1[_pair].sppList; \n        }\n        else {\n            return map2[_pair].sppList;\n        }\n    }\n\n    function getTimeRemainingToCharge(uint256 sppID) public view returns (uint256 time) {\n        if((sppSubscriptionStats[sppID].lastPaidAt).add(sppSubscriptionStats[sppID].period) < block.timestamp){\n            return 0;\n        }\n        else {\n          return ((sppSubscriptionStats[sppID].lastPaidAt).add(sppSubscriptionStats[sppID].period).sub(block.timestamp));  \n        }\n    }\n    \n    // Update dev address by initiating with the previous dev.\n    function changeFee(uint256 _fee) public _ownerOnly{\n        require(_fee <= 25, \"Cannot increase fee beyond 25\");\n        fee = _fee;\n    }\n    \n    // This function is to optimise batching process\n    function getNearestHour(uint256 _time) public pure returns (uint256) {\n        uint256 _secondsExtra = _time.mod(3600);\n        if(_secondsExtra > 1800){\n            return ((_time).add(3600)).sub(_secondsExtra);\n        }\n        else {\n            return (_time).sub(_secondsExtra);\n        }\n    }\n\n    struct sppSubscribers {\n        bool exists;\n        address customerAddress;\n        uint256 value; \n        uint256 period;\n        uint256 lastPaidAt;\n    }\n\n    struct currentTokenStats {\n        address TokenToGet;\n        uint256 amountGotten;\n        address TokenToGive;\n        uint256 amountGiven;\n    }\n\n    struct listOfSppByAddress {\n        uint256[] arr;\n    }\n    \n    struct pairStats{\n        address[] token;\n        uint256[] sppList;\n        bool exists;\n        uint256 position;\n    }\n    \n    struct chargeSppStruct {\n        uint256 sppId;\n        uint256 amt;\n        address custAdd;\n    }\n    \n    mapping(uint256 => uint256) public sppAmounts;\n    mapping(address => pairStats) private map1;\n    mapping(address => pairStats) private map2;\n    mapping(uint256 => currentTokenStats) tokenStats;\n    mapping(address => listOfSppByAddress) sppSubList;\n    mapping(uint256 => sppSubscribers) public sppSubscriptionStats;\n    mapping(address => mapping(address => uint256)) public tokens;\n\n    mapping(uint256 => bool) public inactiveSIP; // contains a SIP ID only if it existed and now has been deactivated\n    \n    // TOKEN0 -> TOKEN1 -> PAIRADD\n    mapping(address => mapping(address => address)) public pairDetails;\n\n    \n    address public uniswapContractAddress;\n    address public factory;\n    address public owner;\n    address private potentialAdmin;\n    uint256 public sppID;\n    address public usdt;\n    uint256 public usdtDecimal = 8;\n    address public feeAccount;\n    uint256 public minPeriod = 3600;\n    bool public scLock = false;\n    uint256 public fee = 25;\n    \n}\n\ncontract SIPDapp is SIP {\n    receive() external payable {\n        revert();\n    }\n\n    string public name;\n\n    constructor() {\n        owner = msg.sender;\n        name = \"SIP Dapp\";\n    }\n}\n",
  "sourcePath": "/home/ubuntu/projects/sip/contracts/sip.sol",
  "compiler": {
    "name": "solc",
    "version": "0.7.2+commit.51b20bc0.Emscripten.clang"
  },
  "schemaVersion": "3.2.5",
  "updatedAt": "2020-10-13T20:44:14.467Z",
  "devdoc": {
    "kind": "dev",
    "methods": {},
    "version": 1
  },
  "userdoc": {
    "kind": "user",
    "methods": {},
    "version": 1
  }
}